{
  "contractName": "viber",
  "abi": [
    {
      "inputs": [],
      "name": "songCounter",
      "outputs": [
        {
          "internalType": "uint256",
          "name": "",
          "type": "uint256"
        }
      ],
      "stateMutability": "view",
      "type": "function",
      "constant": true
    },
    {
      "inputs": [
        {
          "internalType": "uint256",
          "name": "",
          "type": "uint256"
        }
      ],
      "name": "songs",
      "outputs": [
        {
          "internalType": "string",
          "name": "artistName",
          "type": "string"
        },
        {
          "internalType": "string",
          "name": "songTitle",
          "type": "string"
        },
        {
          "internalType": "string",
          "name": "cryptoAddress",
          "type": "string"
        },
        {
          "internalType": "string",
          "name": "ipfsHash",
          "type": "string"
        }
      ],
      "stateMutability": "view",
      "type": "function",
      "constant": true
    },
    {
      "inputs": [
        {
          "internalType": "string",
          "name": "_artistName",
          "type": "string"
        },
        {
          "internalType": "string",
          "name": "_songTitle",
          "type": "string"
        },
        {
          "internalType": "string",
          "name": "_cryptoAddress",
          "type": "string"
        },
        {
          "internalType": "string",
          "name": "_ipfsHash",
          "type": "string"
        }
      ],
      "name": "postSong",
      "outputs": [],
      "stateMutability": "nonpayable",
      "type": "function"
    },
    {
      "inputs": [],
      "name": "getAllSongs",
      "outputs": [
        {
          "components": [
            {
              "internalType": "string",
              "name": "artistName",
              "type": "string"
            },
            {
              "internalType": "string",
              "name": "songTitle",
              "type": "string"
            },
            {
              "internalType": "string",
              "name": "cryptoAddress",
              "type": "string"
            },
            {
              "internalType": "string",
              "name": "ipfsHash",
              "type": "string"
            }
          ],
          "internalType": "struct viber.Song[]",
          "name": "",
          "type": "tuple[]"
        }
      ],
      "stateMutability": "view",
      "type": "function",
      "constant": true
    },
    {
      "inputs": [
        {
          "internalType": "uint256",
          "name": "_songIndex",
          "type": "uint256"
        }
      ],
      "name": "getCryptoAddress",
      "outputs": [
        {
          "internalType": "string",
          "name": "",
          "type": "string"
        }
      ],
      "stateMutability": "view",
      "type": "function",
      "constant": true
    }
  ],
  "bytecode": "0x608060405234801561001057600080fd5b50611045806100206000396000f3fe608060405234801561001057600080fd5b50600436106100565760003560e01c806292c5e21461005b57806329ef686214610077578063304cff30146100955780634bd4d59e146100c8578063e35054db146100e6575b600080fd5b610075600480360381019061007091906109e0565b610116565b005b61007f6101e0565b60405161008c9190610c8e565b60405180910390f35b6100af60048036038101906100aa9190610aa3565b610551565b6040516100bf9493929190610cd2565b60405180910390f35b6100d06107a1565b6040516100dd9190610d53565b60405180910390f35b61010060048036038101906100fb9190610aa3565b6107a7565b60405161010d9190610cb0565b60405180910390f35b60405180608001604052808581526020018481526020018381526020018281525060008060015481526020019081526020016000206000820151816000019080519060200190610167929190610898565b506020820151816001019080519060200190610184929190610898565b5060408201518160020190805190602001906101a1929190610898565b5060608201518160030190805190602001906101be929190610898565b50905050600160008154809291906101d590610f11565b919050555050505050565b6060600060015467ffffffffffffffff811115610226577f4e487b7100000000000000000000000000000000000000000000000000000000600052604160045260246000fd5b60405190808252806020026020018201604052801561025f57816020015b61024c61091e565b8152602001906001900390816102445790505b509050600080600180546102739190610e35565b90505b60008110610548576000808281526020019081526020016000206040518060800160405290816000820180546102ab90610edf565b80601f01602080910402602001604051908101604052809291908181526020018280546102d790610edf565b80156103245780601f106102f957610100808354040283529160200191610324565b820191906000526020600020905b81548152906001019060200180831161030757829003601f168201915b5050505050815260200160018201805461033d90610edf565b80601f016020809104026020016040519081016040528092919081815260200182805461036990610edf565b80156103b65780601f1061038b576101008083540402835291602001916103b6565b820191906000526020600020905b81548152906001019060200180831161039957829003601f168201915b505050505081526020016002820180546103cf90610edf565b80601f01602080910402602001604051908101604052809291908181526020018280546103fb90610edf565b80156104485780601f1061041d57610100808354040283529160200191610448565b820191906000526020600020905b81548152906001019060200180831161042b57829003601f168201915b5050505050815260200160038201805461046190610edf565b80601f016020809104026020016040519081016040528092919081815260200182805461048d90610edf565b80156104da5780601f106104af576101008083540402835291602001916104da565b820191906000526020600020905b8154815290600101906020018083116104bd57829003601f168201915b50505050508152505083838151811061051c577f4e487b7100000000000000000000000000000000000000000000000000000000600052603260045260246000fd5b6020026020010181905250818061053290610f11565b925050808061054090610eb5565b915050610276565b50819250505090565b600060205280600052604060002060009150905080600001805461057490610edf565b80601f01602080910402602001604051908101604052809291908181526020018280546105a090610edf565b80156105ed5780601f106105c2576101008083540402835291602001916105ed565b820191906000526020600020905b8154815290600101906020018083116105d057829003601f168201915b50505050509080600101805461060290610edf565b80601f016020809104026020016040519081016040528092919081815260200182805461062e90610edf565b801561067b5780601f106106505761010080835404028352916020019161067b565b820191906000526020600020905b81548152906001019060200180831161065e57829003601f168201915b50505050509080600201805461069090610edf565b80601f01602080910402602001604051908101604052809291908181526020018280546106bc90610edf565b80156107095780601f106106de57610100808354040283529160200191610709565b820191906000526020600020905b8154815290600101906020018083116106ec57829003601f168201915b50505050509080600301805461071e90610edf565b80601f016020809104026020016040519081016040528092919081815260200182805461074a90610edf565b80156107975780601f1061076c57610100808354040283529160200191610797565b820191906000526020600020905b81548152906001019060200180831161077a57829003601f168201915b5050505050905084565b60015481565b606060015482106107ed576040517f08c379a00000000000000000000000000000000000000000000000000000000081526004016107e490610d33565b60405180910390fd5b6000806000848152602001908152602001600020905080600201805461081290610edf565b80601f016020809104026020016040519081016040528092919081815260200182805461083e90610edf565b801561088b5780601f106108605761010080835404028352916020019161088b565b820191906000526020600020905b81548152906001019060200180831161086e57829003601f168201915b5050505050915050919050565b8280546108a490610edf565b90600052602060002090601f0160209004810192826108c6576000855561090d565b82601f106108df57805160ff191683800117855561090d565b8280016001018555821561090d579182015b8281111561090c5782518255916020019190600101906108f1565b5b50905061091a9190610946565b5090565b6040518060800160405280606081526020016060815260200160608152602001606081525090565b5b8082111561095f576000816000905550600101610947565b5090565b600061097661097184610d9f565b610d6e565b90508281526020810184848401111561098e57600080fd5b610999848285610e73565b509392505050565b600082601f8301126109b257600080fd5b81356109c2848260208601610963565b91505092915050565b6000813590506109da81610ff8565b92915050565b600080600080608085870312156109f657600080fd5b600085013567ffffffffffffffff811115610a1057600080fd5b610a1c878288016109a1565b945050602085013567ffffffffffffffff811115610a3957600080fd5b610a45878288016109a1565b935050604085013567ffffffffffffffff811115610a6257600080fd5b610a6e878288016109a1565b925050606085013567ffffffffffffffff811115610a8b57600080fd5b610a97878288016109a1565b91505092959194509250565b600060208284031215610ab557600080fd5b6000610ac3848285016109cb565b91505092915050565b6000610ad88383610c07565b905092915050565b6000610aeb82610ddf565b610af58185610e02565b935083602082028501610b0785610dcf565b8060005b85811015610b435784840389528151610b248582610acc565b9450610b2f83610df5565b925060208a01995050600181019050610b0b565b50829750879550505050505092915050565b6000610b6082610dea565b610b6a8185610e13565b9350610b7a818560208601610e82565b610b8381610fe7565b840191505092915050565b6000610b9982610dea565b610ba38185610e24565b9350610bb3818560208601610e82565b610bbc81610fe7565b840191505092915050565b6000610bd4601c83610e24565b91507f496e76616c696420736f6e6720696e6465782070726f76696465642e000000006000830152602082019050919050565b60006080830160008301518482036000860152610c248282610b55565b91505060208301518482036020860152610c3e8282610b55565b91505060408301518482036040860152610c588282610b55565b91505060608301518482036060860152610c728282610b55565b9150508091505092915050565b610c8881610e69565b82525050565b60006020820190508181036000830152610ca88184610ae0565b905092915050565b60006020820190508181036000830152610cca8184610b8e565b905092915050565b60006080820190508181036000830152610cec8187610b8e565b90508181036020830152610d008186610b8e565b90508181036040830152610d148185610b8e565b90508181036060830152610d288184610b8e565b905095945050505050565b60006020820190508181036000830152610d4c81610bc7565b9050919050565b6000602082019050610d686000830184610c7f565b92915050565b6000604051905081810181811067ffffffffffffffff82111715610d9557610d94610fb8565b5b8060405250919050565b600067ffffffffffffffff821115610dba57610db9610fb8565b5b601f19601f8301169050602081019050919050565b6000819050602082019050919050565b600081519050919050565b600081519050919050565b6000602082019050919050565b600082825260208201905092915050565b600082825260208201905092915050565b600082825260208201905092915050565b6000610e4082610e69565b9150610e4b83610e69565b925082821015610e5e57610e5d610f5a565b5b828203905092915050565b6000819050919050565b82818337600083830152505050565b60005b83811015610ea0578082015181840152602081019050610e85565b83811115610eaf576000848401525b50505050565b6000610ec082610e69565b91506000821415610ed457610ed3610f5a565b5b600182039050919050565b60006002820490506001821680610ef757607f821691505b60208210811415610f0b57610f0a610f89565b5b50919050565b6000610f1c82610e69565b91507fffffffffffffffffffffffffffffffffffffffffffffffffffffffffffffffff821415610f4f57610f4e610f5a565b5b600182019050919050565b7f4e487b7100000000000000000000000000000000000000000000000000000000600052601160045260246000fd5b7f4e487b7100000000000000000000000000000000000000000000000000000000600052602260045260246000fd5b7f4e487b7100000000000000000000000000000000000000000000000000000000600052604160045260246000fd5b6000601f19601f8301169050919050565b61100181610e69565b811461100c57600080fd5b5056fea2646970667358221220dba4e88c1063470d0f3e6407fff0389a802d80286a2c9f48630fcde6aa39b89664736f6c63430008000033",
  "immutableReferences": {},
  "source": "// SPDX-License-Identifier: MIT\r\npragma solidity ^0.8.0;\r\n\r\ncontract viber {\r\n    struct Song {\r\n        string artistName;\r\n        string songTitle;\r\n        string cryptoAddress;\r\n        string ipfsHash;\r\n    }\r\n\r\n    mapping (uint256 => Song) public songs;\r\n    uint256 public songCounter;\r\n\r\n    //takes in the parameters and posts a song\r\n    function postSong(string memory _artistName, string memory _songTitle, string memory _cryptoAddress, string memory _ipfsHash) public {\r\n        songs[songCounter] = Song(_artistName, _songTitle, _cryptoAddress, _ipfsHash);\r\n        songCounter++;\r\n    }\r\n\r\n    //gets all the songs that have been uploaded in reverse order\r\n   function getAllSongs() public view returns (Song[] memory) {\r\n    Song[] memory allSongs = new Song[](songCounter);\r\n    uint256 j = 0;\r\n    for (uint256 i = songCounter - 1; i >= 0; i--) {\r\n        allSongs[j] = songs[i];\r\n        j++;\r\n    }\r\n    return allSongs;\r\n}\r\n\r\n\r\n\r\n//gets the address associated with the song\r\n  function getCryptoAddress(uint256 _songIndex) public view returns (string memory) {\r\n    require(_songIndex < songCounter, \"Invalid song index provided.\");\r\n\r\n    Song storage song = songs[_songIndex];\r\n    return song.cryptoAddress;\r\n}\r\n\r\n}\r\n",
  "sourcePath": "C:\\Users\\EDITH CHISA CHUKU\\Desktop\\truffle\\contracts\\Viber.sol",
  "compiler": {
    "name": "solc",
    "version": "0.8.0+commit.c7dfd78e.Emscripten.clang"
  },
  "schemaVersion": "3.4.13",
  "updatedAt": "2023-04-02T04:19:55.281Z",
  "networkType": "ethereum",
  "devdoc": {
    "kind": "dev",
    "methods": {},
    "version": 1
  },
  "userdoc": {
    "kind": "user",
    "methods": {},
    "version": 1
  }
}