{
  "contractName": "Viber_dapp",
  "abi": [
    {
      "inputs": [],
      "name": "songCounter",
      "outputs": [
        {
          "internalType": "uint256",
          "name": "",
          "type": "uint256"
        }
      ],
      "stateMutability": "view",
      "type": "function",
      "constant": true
    },
    {
      "inputs": [
        {
          "internalType": "uint256",
          "name": "",
          "type": "uint256"
        }
      ],
      "name": "songs",
      "outputs": [
        {
          "internalType": "string",
          "name": "artistName",
          "type": "string"
        },
        {
          "internalType": "string",
          "name": "songTitle",
          "type": "string"
        },
        {
          "internalType": "string",
          "name": "cryptoAddress",
          "type": "string"
        },
        {
          "internalType": "string",
          "name": "ipfsHash",
          "type": "string"
        }
      ],
      "stateMutability": "view",
      "type": "function",
      "constant": true
    },
    {
      "inputs": [
        {
          "internalType": "string",
          "name": "_artistName",
          "type": "string"
        },
        {
          "internalType": "string",
          "name": "_songTitle",
          "type": "string"
        },
        {
          "internalType": "string",
          "name": "_cryptoAddress",
          "type": "string"
        },
        {
          "internalType": "string",
          "name": "_ipfsHash",
          "type": "string"
        }
      ],
      "name": "postSong",
      "outputs": [],
      "stateMutability": "nonpayable",
      "type": "function"
    },
    {
      "inputs": [],
      "name": "getAllSongs",
      "outputs": [
        {
          "components": [
            {
              "internalType": "string",
              "name": "artistName",
              "type": "string"
            },
            {
              "internalType": "string",
              "name": "songTitle",
              "type": "string"
            },
            {
              "internalType": "string",
              "name": "cryptoAddress",
              "type": "string"
            },
            {
              "internalType": "string",
              "name": "ipfsHash",
              "type": "string"
            }
          ],
          "internalType": "struct Viber_dapp.Song[]",
          "name": "",
          "type": "tuple[]"
        }
      ],
      "stateMutability": "view",
      "type": "function",
      "constant": true
    },
    {
      "inputs": [
        {
          "internalType": "uint256",
          "name": "_songIndex",
          "type": "uint256"
        },
        {
          "internalType": "uint256",
          "name": "_tip",
          "type": "uint256"
        }
      ],
      "name": "payArtist",
      "outputs": [],
      "stateMutability": "payable",
      "type": "function",
      "payable": true
    }
  ],
  "bytecode": "0x608060405234801561001057600080fd5b50611477806100206000396000f3fe6080604052600436106100495760003560e01c806292c5e21461004e57806329ef686214610077578063304cff30146100a25780634bd4d59e146100e2578063cfb9ebfb1461010d575b600080fd5b34801561005a57600080fd5b5061007560048036038101906100709190610caf565b610129565b005b34801561008357600080fd5b5061008c6101f3565b6040516100999190611094565b60405180910390f35b3480156100ae57600080fd5b506100c960048036038101906100c49190610d72565b610546565b6040516100d994939291906110b6565b60405180910390f35b3480156100ee57600080fd5b506100f7610796565b6040516101049190611177565b60405180910390f35b61012760048036038101906101229190610d9b565b61079c565b005b6040518060800160405280858152602001848152602001838152602001828152506000806001548152602001908152602001600020600082015181600001908051906020019061017a929190610b67565b506020820151816001019080519060200190610197929190610b67565b5060408201518160020190805190602001906101b4929190610b67565b5060608201518160030190805190602001906101d1929190610b67565b50905050600160008154809291906101e890611343565b919050555050505050565b6060600060015467ffffffffffffffff811115610239577f4e487b7100000000000000000000000000000000000000000000000000000000600052604160045260246000fd5b60405190808252806020026020018201604052801561027257816020015b61025f610bed565b8152602001906001900390816102575790505b50905060005b60015481101561053e576000808281526020019081526020016000206040518060800160405290816000820180546102af90611311565b80601f01602080910402602001604051908101604052809291908181526020018280546102db90611311565b80156103285780601f106102fd57610100808354040283529160200191610328565b820191906000526020600020905b81548152906001019060200180831161030b57829003601f168201915b5050505050815260200160018201805461034190611311565b80601f016020809104026020016040519081016040528092919081815260200182805461036d90611311565b80156103ba5780601f1061038f576101008083540402835291602001916103ba565b820191906000526020600020905b81548152906001019060200180831161039d57829003601f168201915b505050505081526020016002820180546103d390611311565b80601f01602080910402602001604051908101604052809291908181526020018280546103ff90611311565b801561044c5780601f106104215761010080835404028352916020019161044c565b820191906000526020600020905b81548152906001019060200180831161042f57829003601f168201915b5050505050815260200160038201805461046590611311565b80601f016020809104026020016040519081016040528092919081815260200182805461049190611311565b80156104de5780601f106104b3576101008083540402835291602001916104de565b820191906000526020600020905b8154815290600101906020018083116104c157829003601f168201915b505050505081525050828281518110610520577f4e487b7100000000000000000000000000000000000000000000000000000000600052603260045260246000fd5b6020026020010181905250808061053690611343565b915050610278565b508091505090565b600060205280600052604060002060009150905080600001805461056990611311565b80601f016020809104026020016040519081016040528092919081815260200182805461059590611311565b80156105e25780601f106105b7576101008083540402835291602001916105e2565b820191906000526020600020905b8154815290600101906020018083116105c557829003601f168201915b5050505050908060010180546105f790611311565b80601f016020809104026020016040519081016040528092919081815260200182805461062390611311565b80156106705780601f1061064557610100808354040283529160200191610670565b820191906000526020600020905b81548152906001019060200180831161065357829003601f168201915b50505050509080600201805461068590611311565b80601f01602080910402602001604051908101604052809291908181526020018280546106b190611311565b80156106fe5780601f106106d3576101008083540402835291602001916106fe565b820191906000526020600020905b8154815290600101906020018083116106e157829003601f168201915b50505050509080600301805461071390611311565b80601f016020809104026020016040519081016040528092919081815260200182805461073f90611311565b801561078c5780601f106107615761010080835404028352916020019161078c565b820191906000526020600020905b81548152906001019060200180831161076f57829003601f168201915b5050505050905084565b60015481565b60015482106107e0576040517f08c379a00000000000000000000000000000000000000000000000000000000081526004016107d790611137565b60405180910390fd5b80341015610823576040517f08c379a000000000000000000000000000000000000000000000000000000000815260040161081a90611157565b60405180910390fd5b6000806000848152602001908152602001600020905060006108d082600201805461084d90611311565b80601f016020809104026020016040519081016040528092919081815260200182805461087990611311565b80156108c65780601f1061089b576101008083540402835291602001916108c6565b820191906000526020600020905b8154815290600101906020018083116108a957829003601f168201915b505050505061091f565b90508073ffffffffffffffffffffffffffffffffffffffff166108fc349081150290604051600060405180830381858888f19350505050158015610918573d6000803e3d6000fd5b5050505050565b600080829050602a815114610969576040517f08c379a000000000000000000000000000000000000000000000000000000000815260040161096090611117565b60405180910390fd5b6000601467ffffffffffffffff8111156109ac577f4e487b7100000000000000000000000000000000000000000000000000000000600052604160045260246000fd5b6040519080825280601f01601f1916602001820160405280156109de5781602001600182028036833780820191505090505b50905060005b6014811015610ab857826002826109fb919061126f565b81518110610a32577f4e487b7100000000000000000000000000000000000000000000000000000000600052603260045260246000fd5b602001015160f81c60f81b828281518110610a76577f4e487b7100000000000000000000000000000000000000000000000000000000600052603260045260246000fd5b60200101907effffffffffffffffffffffffffffffffffffffffffffffffffffffffffffff1916908160001a9053508080610ab090611343565b9150506109e4565b506000600467ffffffffffffffff811115610afc577f4e487b7100000000000000000000000000000000000000000000000000000000600052604160045260246000fd5b6040519080825280601f01601f191660200182016040528015610b2e5781602001600182028036833780820191505090505b5090508082604051602001610b44929190611070565b6040516020818303038152906040528051906020012060001c9350505050919050565b828054610b7390611311565b90600052602060002090601f016020900481019282610b955760008555610bdc565b82601f10610bae57805160ff1916838001178555610bdc565b82800160010185558215610bdc579182015b82811115610bdb578251825591602001919060010190610bc0565b5b509050610be99190610c15565b5090565b6040518060800160405280606081526020016060815260200160608152602001606081525090565b5b80821115610c2e576000816000905550600101610c16565b5090565b6000610c45610c40846111c3565b611192565b905082815260208101848484011115610c5d57600080fd5b610c688482856112cf565b509392505050565b600082601f830112610c8157600080fd5b8135610c91848260208601610c32565b91505092915050565b600081359050610ca98161142a565b92915050565b60008060008060808587031215610cc557600080fd5b600085013567ffffffffffffffff811115610cdf57600080fd5b610ceb87828801610c70565b945050602085013567ffffffffffffffff811115610d0857600080fd5b610d1487828801610c70565b935050604085013567ffffffffffffffff811115610d3157600080fd5b610d3d87828801610c70565b925050606085013567ffffffffffffffff811115610d5a57600080fd5b610d6687828801610c70565b91505092959194509250565b600060208284031215610d8457600080fd5b6000610d9284828501610c9a565b91505092915050565b60008060408385031215610dae57600080fd5b6000610dbc85828601610c9a565b9250506020610dcd85828601610c9a565b9150509250929050565b6000610de38383610fe9565b905092915050565b6000610df682611203565b610e008185611231565b935083602082028501610e12856111f3565b8060005b85811015610e4e5784840389528151610e2f8582610dd7565b9450610e3a83611224565b925060208a01995050600181019050610e16565b50829750879550505050505092915050565b6000610e6b8261120e565b610e758185611242565b9350610e858185602086016112de565b80840191505092915050565b6000610e9c82611219565b610ea6818561124d565b9350610eb68185602086016112de565b610ebf81611419565b840191505092915050565b6000610ed582611219565b610edf818561125e565b9350610eef8185602086016112de565b610ef881611419565b840191505092915050565b6000610f1060168361125e565b91507f496e76616c69642061646472657373206c656e677468000000000000000000006000830152602082019050919050565b6000610f50601c8361125e565b91507f496e76616c696420736f6e6720696e6465782070726f76696465642e000000006000830152602082019050919050565b6000610f9060228361125e565b91507f496e73756666696369656e742066756e647320746f207061792074686520746960008301527f702e0000000000000000000000000000000000000000000000000000000000006020830152604082019050919050565b600060808301600083015184820360008601526110068282610e91565b915050602083015184820360208601526110208282610e91565b9150506040830151848203604086015261103a8282610e91565b915050606083015184820360608601526110548282610e91565b9150508091505092915050565b61106a816112c5565b82525050565b600061107c8285610e60565b91506110888284610e60565b91508190509392505050565b600060208201905081810360008301526110ae8184610deb565b905092915050565b600060808201905081810360008301526110d08187610eca565b905081810360208301526110e48186610eca565b905081810360408301526110f88185610eca565b9050818103606083015261110c8184610eca565b905095945050505050565b6000602082019050818103600083015261113081610f03565b9050919050565b6000602082019050818103600083015261115081610f43565b9050919050565b6000602082019050818103600083015261117081610f83565b9050919050565b600060208201905061118c6000830184611061565b92915050565b6000604051905081810181811067ffffffffffffffff821117156111b9576111b86113ea565b5b8060405250919050565b600067ffffffffffffffff8211156111de576111dd6113ea565b5b601f19601f8301169050602081019050919050565b6000819050602082019050919050565b600081519050919050565b600081519050919050565b600081519050919050565b6000602082019050919050565b600082825260208201905092915050565b600081905092915050565b600082825260208201905092915050565b600082825260208201905092915050565b600061127a826112c5565b9150611285836112c5565b9250827fffffffffffffffffffffffffffffffffffffffffffffffffffffffffffffffff038211156112ba576112b961138c565b5b828201905092915050565b6000819050919050565b82818337600083830152505050565b60005b838110156112fc5780820151818401526020810190506112e1565b8381111561130b576000848401525b50505050565b6000600282049050600182168061132957607f821691505b6020821081141561133d5761133c6113bb565b5b50919050565b600061134e826112c5565b91507fffffffffffffffffffffffffffffffffffffffffffffffffffffffffffffffff8214156113815761138061138c565b5b600182019050919050565b7f4e487b7100000000000000000000000000000000000000000000000000000000600052601160045260246000fd5b7f4e487b7100000000000000000000000000000000000000000000000000000000600052602260045260246000fd5b7f4e487b7100000000000000000000000000000000000000000000000000000000600052604160045260246000fd5b6000601f19601f8301169050919050565b611433816112c5565b811461143e57600080fd5b5056fea2646970667358221220d88ce81799dfec040f46efd1401508cd8603765d250e66d976bc8ab3ad8406d664736f6c63430008000033",
  "immutableReferences": {},
  "source": "// SPDX-License-Identifier: MIT\r\npragma solidity ^0.8.0;\r\ncontract Viber_dapp {\r\n    \r\n    struct Song {\r\n        string artistName;\r\n        string songTitle;\r\n        string cryptoAddress;\r\n        string ipfsHash;\r\n    }\r\n    \r\n    mapping (uint256 => Song) public songs;\r\n    uint256 public songCounter;\r\n    //takes in the parameters and posts a song\r\n    function postSong(string memory _artistName, string memory _songTitle, string memory _cryptoAddress, string memory _ipfsHash) public {\r\n        songs[songCounter] = Song(_artistName, _songTitle, _cryptoAddress, _ipfsHash);\r\n        songCounter++;\r\n    }\r\n\r\n    //gets all the songs that have been uploaded\r\n    function getAllSongs() public view returns (Song[] memory) {\r\n        Song[] memory allSongs = new Song[](songCounter);\r\n        for (uint256 i = 0; i < songCounter; i++) {\r\n            allSongs[i] = songs[i];\r\n        }\r\n        return allSongs;\r\n    }\r\n    // this helper function to the payArtist function converts the crypto address provided from a string to an address type capable of engaging in a transaction\r\n  function stringToAddress(string memory _address) private pure returns (address) {\r\n    bytes memory _addressBytes = bytes(_address);\r\n    require(_addressBytes.length == 42, \"Invalid address length\");\r\n\r\n    bytes memory _bytes = new bytes(20);\r\n    for (uint i = 0; i < 20; i++) {\r\n        _bytes[i] = _addressBytes[i + 2];\r\n    }\r\n\r\n    bytes memory emptyBytes = new bytes(4);\r\n    return address(uint160(uint256(keccak256(abi.encodePacked(emptyBytes, _bytes)))));\r\n}\r\n//this function takes in the index of a song, fetches the download fee and crypto address associated with the song\r\n// and transfers the ammount sent to the crypto address.\r\nfunction payArtist(uint256 _songIndex, uint256 _tip) public payable {\r\n    require(_songIndex < songCounter, \"Invalid song index provided.\");\r\n    require(msg.value >= _tip, \"Insufficient funds to pay the tip.\");\r\n    \r\n    Song storage song = songs[_songIndex];\r\n    address payable artistAddress = payable(stringToAddress(song.cryptoAddress));\r\n    artistAddress.transfer(msg.value);\r\n}\r\n\r\n\r\n}",
  "sourcePath": "C:\\Users\\EDITH CHISA CHUKU\\Desktop\\truffle\\contracts\\Viber_dapp.sol",
  "compiler": {
    "name": "solc",
    "version": "0.8.0+commit.c7dfd78e.Emscripten.clang"
  },
  "schemaVersion": "3.4.13",
  "updatedAt": "2023-03-26T17:56:44.263Z",
  "networkType": "ethereum",
  "devdoc": {
    "kind": "dev",
    "methods": {},
    "version": 1
  },
  "userdoc": {
    "kind": "user",
    "methods": {},
    "version": 1
  }
}