{
  "contractName": "Viber",
  "abi": [
    {
      "inputs": [],
      "name": "songCounter",
      "outputs": [
        {
          "internalType": "uint256",
          "name": "",
          "type": "uint256"
        }
      ],
      "stateMutability": "view",
      "type": "function",
      "constant": true
    },
    {
      "inputs": [
        {
          "internalType": "uint256",
          "name": "",
          "type": "uint256"
        }
      ],
      "name": "songs",
      "outputs": [
        {
          "internalType": "string",
          "name": "artistName",
          "type": "string"
        },
        {
          "internalType": "string",
          "name": "songTitle",
          "type": "string"
        },
        {
          "internalType": "string",
          "name": "cryptoAddress",
          "type": "string"
        },
        {
          "internalType": "string",
          "name": "ipfsHash",
          "type": "string"
        }
      ],
      "stateMutability": "view",
      "type": "function",
      "constant": true
    },
    {
      "inputs": [
        {
          "internalType": "string",
          "name": "_artistName",
          "type": "string"
        },
        {
          "internalType": "string",
          "name": "_songTitle",
          "type": "string"
        },
        {
          "internalType": "string",
          "name": "_cryptoAddress",
          "type": "string"
        },
        {
          "internalType": "string",
          "name": "_ipfsHash",
          "type": "string"
        }
      ],
      "name": "postSong",
      "outputs": [],
      "stateMutability": "nonpayable",
      "type": "function"
    },
    {
      "inputs": [],
      "name": "getAllSongs",
      "outputs": [
        {
          "components": [
            {
              "internalType": "string",
              "name": "artistName",
              "type": "string"
            },
            {
              "internalType": "string",
              "name": "songTitle",
              "type": "string"
            },
            {
              "internalType": "string",
              "name": "cryptoAddress",
              "type": "string"
            },
            {
              "internalType": "string",
              "name": "ipfsHash",
              "type": "string"
            }
          ],
          "internalType": "struct Viber.Song[]",
          "name": "",
          "type": "tuple[]"
        }
      ],
      "stateMutability": "view",
      "type": "function",
      "constant": true
    },
    {
      "inputs": [
        {
          "internalType": "uint256",
          "name": "_songIndex",
          "type": "uint256"
        },
        {
          "internalType": "uint256",
          "name": "_tip",
          "type": "uint256"
        }
      ],
      "name": "payArtist",
      "outputs": [],
      "stateMutability": "payable",
      "type": "function",
      "payable": true
    }
  ],
  "bytecode": "0x608060405234801561001057600080fd5b5061115c806100206000396000f3fe6080604052600436106100495760003560e01c806292c5e21461004e57806329ef686214610077578063304cff30146100a25780634bd4d59e146100e2578063cfb9ebfb1461010d575b600080fd5b34801561005a57600080fd5b50610075600480360381019061007091906109ff565b610129565b005b34801561008357600080fd5b5061008c6101f3565b6040516100999190610de5565b60405180910390f35b3480156100ae57600080fd5b506100c960048036038101906100c49190610ac2565b610546565b6040516100d99493929190610e07565b60405180910390f35b3480156100ee57600080fd5b506100f7610796565b6040516101049190610ea8565b60405180910390f35b61012760048036038101906101229190610aeb565b61079c565b005b6040518060800160405280858152602001848152602001838152602001828152506000806001548152602001908152602001600020600082015181600001908051906020019061017a9291906108b7565b5060208201518160010190805190602001906101979291906108b7565b5060408201518160020190805190602001906101b49291906108b7565b5060608201518160030190805190602001906101d19291906108b7565b50905050600160008154809291906101e890611028565b919050555050505050565b6060600060015467ffffffffffffffff811115610239577f4e487b7100000000000000000000000000000000000000000000000000000000600052604160045260246000fd5b60405190808252806020026020018201604052801561027257816020015b61025f61093d565b8152602001906001900390816102575790505b50905060005b60015481101561053e576000808281526020019081526020016000206040518060800160405290816000820180546102af90610ff6565b80601f01602080910402602001604051908101604052809291908181526020018280546102db90610ff6565b80156103285780601f106102fd57610100808354040283529160200191610328565b820191906000526020600020905b81548152906001019060200180831161030b57829003601f168201915b5050505050815260200160018201805461034190610ff6565b80601f016020809104026020016040519081016040528092919081815260200182805461036d90610ff6565b80156103ba5780601f1061038f576101008083540402835291602001916103ba565b820191906000526020600020905b81548152906001019060200180831161039d57829003601f168201915b505050505081526020016002820180546103d390610ff6565b80601f01602080910402602001604051908101604052809291908181526020018280546103ff90610ff6565b801561044c5780601f106104215761010080835404028352916020019161044c565b820191906000526020600020905b81548152906001019060200180831161042f57829003601f168201915b5050505050815260200160038201805461046590610ff6565b80601f016020809104026020016040519081016040528092919081815260200182805461049190610ff6565b80156104de5780601f106104b3576101008083540402835291602001916104de565b820191906000526020600020905b8154815290600101906020018083116104c157829003601f168201915b505050505081525050828281518110610520577f4e487b7100000000000000000000000000000000000000000000000000000000600052603260045260246000fd5b6020026020010181905250808061053690611028565b915050610278565b508091505090565b600060205280600052604060002060009150905080600001805461056990610ff6565b80601f016020809104026020016040519081016040528092919081815260200182805461059590610ff6565b80156105e25780601f106105b7576101008083540402835291602001916105e2565b820191906000526020600020905b8154815290600101906020018083116105c557829003601f168201915b5050505050908060010180546105f790610ff6565b80601f016020809104026020016040519081016040528092919081815260200182805461062390610ff6565b80156106705780601f1061064557610100808354040283529160200191610670565b820191906000526020600020905b81548152906001019060200180831161065357829003601f168201915b50505050509080600201805461068590610ff6565b80601f01602080910402602001604051908101604052809291908181526020018280546106b190610ff6565b80156106fe5780601f106106d3576101008083540402835291602001916106fe565b820191906000526020600020905b8154815290600101906020018083116106e157829003601f168201915b50505050509080600301805461071390610ff6565b80601f016020809104026020016040519081016040528092919081815260200182805461073f90610ff6565b801561078c5780601f106107615761010080835404028352916020019161078c565b820191906000526020600020905b81548152906001019060200180831161076f57829003601f168201915b5050505050905084565b60015481565b60015482106107e0576040517f08c379a00000000000000000000000000000000000000000000000000000000081526004016107d790610e68565b60405180910390fd5b80341015610823576040517f08c379a000000000000000000000000000000000000000000000000000000000815260040161081a90610e88565b60405180910390fd5b6000806000848152602001908152602001600020905060008160020160405160200161084f9190610dce565b6040516020818303038152906040528051906020012060001c90508073ffffffffffffffffffffffffffffffffffffffff166108fc849081150290604051600060405180830381858888f193505050501580156108b0573d6000803e3d6000fd5b5050505050565b8280546108c390610ff6565b90600052602060002090601f0160209004810192826108e5576000855561092c565b82601f106108fe57805160ff191683800117855561092c565b8280016001018555821561092c579182015b8281111561092b578251825591602001919060010190610910565b5b5090506109399190610965565b5090565b6040518060800160405280606081526020016060815260200160608152602001606081525090565b5b8082111561097e576000816000905550600101610966565b5090565b600061099561099084610ef4565b610ec3565b9050828152602081018484840111156109ad57600080fd5b6109b8848285610fb4565b509392505050565b600082601f8301126109d157600080fd5b81356109e1848260208601610982565b91505092915050565b6000813590506109f98161110f565b92915050565b60008060008060808587031215610a1557600080fd5b600085013567ffffffffffffffff811115610a2f57600080fd5b610a3b878288016109c0565b945050602085013567ffffffffffffffff811115610a5857600080fd5b610a64878288016109c0565b935050604085013567ffffffffffffffff811115610a8157600080fd5b610a8d878288016109c0565b925050606085013567ffffffffffffffff811115610aaa57600080fd5b610ab6878288016109c0565b91505092959194509250565b600060208284031215610ad457600080fd5b6000610ae2848285016109ea565b91505092915050565b60008060408385031215610afe57600080fd5b6000610b0c858286016109ea565b9250506020610b1d858286016109ea565b9150509250929050565b6000610b338383610d47565b905092915050565b6000610b4682610f49565b610b508185610f6c565b935083602082028501610b6285610f24565b8060005b85811015610b9e5784840389528151610b7f8582610b27565b9450610b8a83610f5f565b925060208a01995050600181019050610b66565b50829750879550505050505092915050565b6000610bbb82610f54565b610bc58185610f7d565b9350610bd5818560208601610fc3565b610bde816110fe565b840191505092915050565b6000610bf482610f54565b610bfe8185610f8e565b9350610c0e818560208601610fc3565b610c17816110fe565b840191505092915050565b60008154610c2f81610ff6565b610c398186610f9f565b94506001821660008114610c545760018114610c6557610c98565b60ff19831686528186019350610c98565b610c6e85610f34565b60005b83811015610c9057815481890152600182019150602081019050610c71565b838801955050505b50505092915050565b6000610cae601c83610f8e565b91507f496e76616c696420736f6e6720696e6465782070726f76696465642e000000006000830152602082019050919050565b6000610cee602283610f8e565b91507f496e73756666696369656e742066756e647320746f207061792074686520746960008301527f702e0000000000000000000000000000000000000000000000000000000000006020830152604082019050919050565b60006080830160008301518482036000860152610d648282610bb0565b91505060208301518482036020860152610d7e8282610bb0565b91505060408301518482036040860152610d988282610bb0565b91505060608301518482036060860152610db28282610bb0565b9150508091505092915050565b610dc881610faa565b82525050565b6000610dda8284610c22565b915081905092915050565b60006020820190508181036000830152610dff8184610b3b565b905092915050565b60006080820190508181036000830152610e218187610be9565b90508181036020830152610e358186610be9565b90508181036040830152610e498185610be9565b90508181036060830152610e5d8184610be9565b905095945050505050565b60006020820190508181036000830152610e8181610ca1565b9050919050565b60006020820190508181036000830152610ea181610ce1565b9050919050565b6000602082019050610ebd6000830184610dbf565b92915050565b6000604051905081810181811067ffffffffffffffff82111715610eea57610ee96110cf565b5b8060405250919050565b600067ffffffffffffffff821115610f0f57610f0e6110cf565b5b601f19601f8301169050602081019050919050565b6000819050602082019050919050565b60008190508160005260206000209050919050565b600081519050919050565b600081519050919050565b6000602082019050919050565b600082825260208201905092915050565b600082825260208201905092915050565b600082825260208201905092915050565b600081905092915050565b6000819050919050565b82818337600083830152505050565b60005b83811015610fe1578082015181840152602081019050610fc6565b83811115610ff0576000848401525b50505050565b6000600282049050600182168061100e57607f821691505b60208210811415611022576110216110a0565b5b50919050565b600061103382610faa565b91507fffffffffffffffffffffffffffffffffffffffffffffffffffffffffffffffff82141561106657611065611071565b5b600182019050919050565b7f4e487b7100000000000000000000000000000000000000000000000000000000600052601160045260246000fd5b7f4e487b7100000000000000000000000000000000000000000000000000000000600052602260045260246000fd5b7f4e487b7100000000000000000000000000000000000000000000000000000000600052604160045260246000fd5b6000601f19601f8301169050919050565b61111881610faa565b811461112357600080fd5b5056fea26469706673582212205faa704b918b2cd2bff521b8a2941e475cc04a44144a5c6ecccf4979cfb1447264736f6c63430008000033",
  "immutableReferences": {},
  "source": "// SPDX-License-Identifier: MIT\r\npragma solidity ^0.8.0;\r\n\r\ncontract Viber {\r\n    struct Song {\r\n        string artistName;\r\n        string songTitle;\r\n        string cryptoAddress;\r\n        string ipfsHash;\r\n    }\r\n\r\n    mapping (uint256 => Song) public songs;\r\n    uint256 public songCounter;\r\n\r\n    //takes in the parameters and posts a song\r\n    function postSong(string memory _artistName, string memory _songTitle, string memory _cryptoAddress, string memory _ipfsHash) public {\r\n        songs[songCounter] = Song(_artistName, _songTitle, _cryptoAddress, _ipfsHash);\r\n        songCounter++;\r\n    }\r\n\r\n    //gets all the songs that have been uploaded\r\n    function getAllSongs() public view returns (Song[] memory) {\r\n        Song[] memory allSongs = new Song[](songCounter);\r\n        for (uint256 i = 0; i < songCounter; i++) {\r\n            allSongs[i] = songs[i];\r\n        }\r\n        return allSongs;\r\n    }\r\n\r\n    // sends tip directly to the artist's cryptoAddress\r\nfunction payArtist(uint256 _songIndex, uint256 _tip) public payable {\r\n    require(_songIndex < songCounter, \"Invalid song index provided.\");\r\n    require(msg.value >= _tip, \"Insufficient funds to pay the tip.\");\r\n\r\n    Song storage song = songs[_songIndex];\r\naddress payable artistAddress = payable(address(uint160(uint256(keccak256(abi.encodePacked(song.cryptoAddress))))));\r\n\r\n\r\n    artistAddress.transfer(_tip);\r\n}\r\n\r\n}\r\n",
  "sourcePath": "C:\\Users\\EDITH CHISA CHUKU\\Desktop\\truffle\\contracts\\Viber.sol",
  "compiler": {
    "name": "solc",
    "version": "0.8.0+commit.c7dfd78e.Emscripten.clang"
  },
  "schemaVersion": "3.4.13",
  "updatedAt": "2023-04-01T22:01:33.997Z",
  "networkType": "ethereum",
  "devdoc": {
    "kind": "dev",
    "methods": {},
    "version": 1
  },
  "userdoc": {
    "kind": "user",
    "methods": {},
    "version": 1
  }
}