{
  "contractName": "Viber_dapp",
  "abi": [
    {
      "inputs": [],
      "name": "songCounter",
      "outputs": [
        {
          "internalType": "uint256",
          "name": "",
          "type": "uint256"
        }
      ],
      "stateMutability": "view",
      "type": "function",
      "constant": true
    },
    {
      "inputs": [
        {
          "internalType": "uint256",
          "name": "",
          "type": "uint256"
        }
      ],
      "name": "songs",
      "outputs": [
        {
          "internalType": "string",
          "name": "artistName",
          "type": "string"
        },
        {
          "internalType": "string",
          "name": "songTitle",
          "type": "string"
        },
        {
          "internalType": "string",
          "name": "cryptoAddress",
          "type": "string"
        },
        {
          "internalType": "string",
          "name": "ipfsHash",
          "type": "string"
        }
      ],
      "stateMutability": "view",
      "type": "function",
      "constant": true
    },
    {
      "inputs": [
        {
          "internalType": "string",
          "name": "_artistName",
          "type": "string"
        },
        {
          "internalType": "string",
          "name": "_songTitle",
          "type": "string"
        },
        {
          "internalType": "string",
          "name": "_cryptoAddress",
          "type": "string"
        },
        {
          "internalType": "string",
          "name": "_ipfsHash",
          "type": "string"
        }
      ],
      "name": "postSong",
      "outputs": [],
      "stateMutability": "nonpayable",
      "type": "function"
    },
    {
      "inputs": [],
      "name": "getAllSongs",
      "outputs": [
        {
          "components": [
            {
              "internalType": "string",
              "name": "artistName",
              "type": "string"
            },
            {
              "internalType": "string",
              "name": "songTitle",
              "type": "string"
            },
            {
              "internalType": "string",
              "name": "cryptoAddress",
              "type": "string"
            },
            {
              "internalType": "string",
              "name": "ipfsHash",
              "type": "string"
            }
          ],
          "internalType": "struct Viber_dapp.Song[]",
          "name": "",
          "type": "tuple[]"
        }
      ],
      "stateMutability": "view",
      "type": "function",
      "constant": true
    },
    {
      "inputs": [
        {
          "internalType": "uint256",
          "name": "_songIndex",
          "type": "uint256"
        }
      ],
      "name": "getSongCryptoAddress",
      "outputs": [
        {
          "internalType": "string",
          "name": "",
          "type": "string"
        }
      ],
      "stateMutability": "view",
      "type": "function",
      "constant": true
    },
    {
      "inputs": [
        {
          "internalType": "address payable",
          "name": "_cryptoAddress",
          "type": "address"
        },
        {
          "internalType": "uint256",
          "name": "_tip",
          "type": "uint256"
        }
      ],
      "name": "PayArtist",
      "outputs": [],
      "stateMutability": "payable",
      "type": "function",
      "payable": true
    }
  ],
  "bytecode": "0x608060405234801561001057600080fd5b506111f2806100206000396000f3fe6080604052600436106100545760003560e01c806292c5e214610059578063111dd67a1461008257806329ef6862146100bf578063304cff30146100ea5780634bd4d59e1461012a578063fd091d6314610155575b600080fd5b34801561006557600080fd5b50610080600480360381019061007b9190610b0e565b610171565b005b34801561008e57600080fd5b506100a960048036038101906100a49190610bd1565b61023b565b6040516100b69190610e1e565b60405180910390f35b3480156100cb57600080fd5b506100d4610326565b6040516100e19190610dfc565b60405180910390f35b3480156100f657600080fd5b50610111600480360381019061010c9190610bd1565b610691565b6040516101219493929190610e40565b60405180910390f35b34801561013657600080fd5b5061013f6108e1565b60405161014c9190610ee1565b60405180910390f35b61016f600480360381019061016a9190610ad2565b6108e7565b005b604051806080016040528085815260200184815260200183815260200182815250600080600154815260200190815260200160002060008201518160000190805190602001906101c2929190610975565b5060208201518160010190805190602001906101df929190610975565b5060408201518160020190805190602001906101fc929190610975565b506060820151816003019080519060200190610219929190610975565b5090505060016000815480929190610230906110a7565b919050555050505050565b60606001548210610281576040517f08c379a000000000000000000000000000000000000000000000000000000000815260040161027890610ea1565b60405180910390fd5b60008083815260200190815260200160002060020180546102a190611075565b80601f01602080910402602001604051908101604052809291908181526020018280546102cd90611075565b801561031a5780601f106102ef5761010080835404028352916020019161031a565b820191906000526020600020905b8154815290600101906020018083116102fd57829003601f168201915b50505050509050919050565b6060600060015467ffffffffffffffff81111561036c577f4e487b7100000000000000000000000000000000000000000000000000000000600052604160045260246000fd5b6040519080825280602002602001820160405280156103a557816020015b6103926109fb565b81526020019060019003908161038a5790505b50905060005b6001548110156106895760008082600180546103c79190610fc3565b6103d19190610fc3565b81526020019081526020016000206040518060800160405290816000820180546103fa90611075565b80601f016020809104026020016040519081016040528092919081815260200182805461042690611075565b80156104735780601f1061044857610100808354040283529160200191610473565b820191906000526020600020905b81548152906001019060200180831161045657829003601f168201915b5050505050815260200160018201805461048c90611075565b80601f01602080910402602001604051908101604052809291908181526020018280546104b890611075565b80156105055780601f106104da57610100808354040283529160200191610505565b820191906000526020600020905b8154815290600101906020018083116104e857829003601f168201915b5050505050815260200160028201805461051e90611075565b80601f016020809104026020016040519081016040528092919081815260200182805461054a90611075565b80156105975780601f1061056c57610100808354040283529160200191610597565b820191906000526020600020905b81548152906001019060200180831161057a57829003601f168201915b505050505081526020016003820180546105b090611075565b80601f01602080910402602001604051908101604052809291908181526020018280546105dc90611075565b80156106295780601f106105fe57610100808354040283529160200191610629565b820191906000526020600020905b81548152906001019060200180831161060c57829003601f168201915b50505050508152505082828151811061066b577f4e487b7100000000000000000000000000000000000000000000000000000000600052603260045260246000fd5b60200260200101819052508080610681906110a7565b9150506103ab565b508091505090565b60006020528060005260406000206000915090508060000180546106b490611075565b80601f01602080910402602001604051908101604052809291908181526020018280546106e090611075565b801561072d5780601f106107025761010080835404028352916020019161072d565b820191906000526020600020905b81548152906001019060200180831161071057829003601f168201915b50505050509080600101805461074290611075565b80601f016020809104026020016040519081016040528092919081815260200182805461076e90611075565b80156107bb5780601f10610790576101008083540402835291602001916107bb565b820191906000526020600020905b81548152906001019060200180831161079e57829003601f168201915b5050505050908060020180546107d090611075565b80601f01602080910402602001604051908101604052809291908181526020018280546107fc90611075565b80156108495780601f1061081e57610100808354040283529160200191610849565b820191906000526020600020905b81548152906001019060200180831161082c57829003601f168201915b50505050509080600301805461085e90611075565b80601f016020809104026020016040519081016040528092919081815260200182805461088a90611075565b80156108d75780601f106108ac576101008083540402835291602001916108d7565b820191906000526020600020905b8154815290600101906020018083116108ba57829003601f168201915b5050505050905084565b60015481565b8034101561092a576040517f08c379a000000000000000000000000000000000000000000000000000000000815260040161092190610ec1565b60405180910390fd5b8173ffffffffffffffffffffffffffffffffffffffff166108fc829081150290604051600060405180830381858888f19350505050158015610970573d6000803e3d6000fd5b505050565b82805461098190611075565b90600052602060002090601f0160209004810192826109a357600085556109ea565b82601f106109bc57805160ff19168380011785556109ea565b828001600101855582156109ea579182015b828111156109e95782518255916020019190600101906109ce565b5b5090506109f79190610a23565b5090565b6040518060800160405280606081526020016060815260200160608152602001606081525090565b5b80821115610a3c576000816000905550600101610a24565b5090565b6000610a53610a4e84610f2d565b610efc565b905082815260208101848484011115610a6b57600080fd5b610a76848285611033565b509392505050565b600081359050610a8d8161118e565b92915050565b600082601f830112610aa457600080fd5b8135610ab4848260208601610a40565b91505092915050565b600081359050610acc816111a5565b92915050565b60008060408385031215610ae557600080fd5b6000610af385828601610a7e565b9250506020610b0485828601610abd565b9150509250929050565b60008060008060808587031215610b2457600080fd5b600085013567ffffffffffffffff811115610b3e57600080fd5b610b4a87828801610a93565b945050602085013567ffffffffffffffff811115610b6757600080fd5b610b7387828801610a93565b935050604085013567ffffffffffffffff811115610b9057600080fd5b610b9c87828801610a93565b925050606085013567ffffffffffffffff811115610bb957600080fd5b610bc587828801610a93565b91505092959194509250565b600060208284031215610be357600080fd5b6000610bf184828501610abd565b91505092915050565b6000610c068383610d75565b905092915050565b6000610c1982610f6d565b610c238185610f90565b935083602082028501610c3585610f5d565b8060005b85811015610c715784840389528151610c528582610bfa565b9450610c5d83610f83565b925060208a01995050600181019050610c39565b50829750879550505050505092915050565b6000610c8e82610f78565b610c988185610fa1565b9350610ca8818560208601611042565b610cb18161117d565b840191505092915050565b6000610cc782610f78565b610cd18185610fb2565b9350610ce1818560208601611042565b610cea8161117d565b840191505092915050565b6000610d02601c83610fb2565b91507f496e76616c696420736f6e6720696e6465782070726f76696465642e000000006000830152602082019050919050565b6000610d42601e83610fb2565b91507f496e73756666696369656e742066756e647320746f2073656e642074697000006000830152602082019050919050565b60006080830160008301518482036000860152610d928282610c83565b91505060208301518482036020860152610dac8282610c83565b91505060408301518482036040860152610dc68282610c83565b91505060608301518482036060860152610de08282610c83565b9150508091505092915050565b610df681611029565b82525050565b60006020820190508181036000830152610e168184610c0e565b905092915050565b60006020820190508181036000830152610e388184610cbc565b905092915050565b60006080820190508181036000830152610e5a8187610cbc565b90508181036020830152610e6e8186610cbc565b90508181036040830152610e828185610cbc565b90508181036060830152610e968184610cbc565b905095945050505050565b60006020820190508181036000830152610eba81610cf5565b9050919050565b60006020820190508181036000830152610eda81610d35565b9050919050565b6000602082019050610ef66000830184610ded565b92915050565b6000604051905081810181811067ffffffffffffffff82111715610f2357610f2261114e565b5b8060405250919050565b600067ffffffffffffffff821115610f4857610f4761114e565b5b601f19601f8301169050602081019050919050565b6000819050602082019050919050565b600081519050919050565b600081519050919050565b6000602082019050919050565b600082825260208201905092915050565b600082825260208201905092915050565b600082825260208201905092915050565b6000610fce82611029565b9150610fd983611029565b925082821015610fec57610feb6110f0565b5b828203905092915050565b600061100282611009565b9050919050565b600073ffffffffffffffffffffffffffffffffffffffff82169050919050565b6000819050919050565b82818337600083830152505050565b60005b83811015611060578082015181840152602081019050611045565b8381111561106f576000848401525b50505050565b6000600282049050600182168061108d57607f821691505b602082108114156110a1576110a061111f565b5b50919050565b60006110b282611029565b91507fffffffffffffffffffffffffffffffffffffffffffffffffffffffffffffffff8214156110e5576110e46110f0565b5b600182019050919050565b7f4e487b7100000000000000000000000000000000000000000000000000000000600052601160045260246000fd5b7f4e487b7100000000000000000000000000000000000000000000000000000000600052602260045260246000fd5b7f4e487b7100000000000000000000000000000000000000000000000000000000600052604160045260246000fd5b6000601f19601f8301169050919050565b61119781610ff7565b81146111a257600080fd5b50565b6111ae81611029565b81146111b957600080fd5b5056fea264697066735822122088fd19e1b602d2392d96746c7be3cc0b6231b73303008ee4e7d990b7c8a06c2564736f6c63430008000033",
  "immutableReferences": {},
  "source": "// SPDX-License-Identifier: MIT\r\npragma solidity ^0.8.0;\r\n\r\ncontract Viber_dapp {\r\n    \r\n    struct Song {\r\n        string artistName;\r\n        string songTitle;\r\n        string cryptoAddress;\r\n        string ipfsHash;\r\n    }\r\n    \r\n    mapping (uint256 => Song) public songs;\r\n    uint256 public songCounter;\r\n    \r\n    function postSong(string memory _artistName, string memory _songTitle, string memory _cryptoAddress, string memory _ipfsHash) public {\r\n        songs[songCounter] = Song(_artistName, _songTitle, _cryptoAddress, _ipfsHash);\r\n        songCounter++;\r\n    }\r\n\r\n    function getAllSongs() public view returns (Song[] memory) {\r\n        Song[] memory allSongs = new Song[](songCounter);\r\n        for (uint256 i = 0; i < songCounter; i++) {\r\n            allSongs[i] = songs[songCounter - 1 - i];\r\n        }\r\n        return allSongs;\r\n    }\r\n\r\n    function getSongCryptoAddress(uint256 _songIndex) public view returns (string memory) {\r\n        require(_songIndex < songCounter, \"Invalid song index provided.\");\r\n        return songs[_songIndex].cryptoAddress;\r\n    }\r\n    \r\n    \r\n    function PayArtist(address payable _cryptoAddress, uint256 _tip) public payable {\r\n    require(msg.value >= _tip, \"Insufficient funds to send tip\");\r\n    _cryptoAddress.transfer(_tip);\r\n}\r\n\r\n}\r\n",
  "sourcePath": "C:\\Users\\cedac\\Desktop\\truffle\\contracts\\Viber_dapp.sol",
  "compiler": {
    "name": "solc",
    "version": "0.8.0+commit.c7dfd78e.Emscripten.clang"
  },
  "schemaVersion": "3.4.13",
  "updatedAt": "2023-04-02T20:14:36.321Z",
  "networkType": "ethereum",
  "devdoc": {
    "kind": "dev",
    "methods": {},
    "version": 1
  },
  "userdoc": {
    "kind": "user",
    "methods": {},
    "version": 1
  }
}